:020000040000FA
:10000000281020209D010000A1010000A301000094
:1000100000000000000000000000000000000000E0
:10002000000000000000000000000000A50100002A
:100030000000000000000000A7010000A90100006E
:10004000AB010000B5220000AB010000AB010000D5
:10005000AB010000AB010000AB010000AB010000F0
:1000600000000000AB010000AB0100000000000038
:1000700000000000AB010000AB0100004D3F00009C
:10008000AB010000AB010000AB010000FD3D000032
:10009000AB010000AB010000000000000000000008
:1000A000AB010000AB0100000000000000000000F8
:1000B000AB01000000000000AB010000AB0100003C
:1000C00000F002F800F05BF812A030C808382418DD
:1000D0002D18AC4201D100F052F80FCCA246AB462D
:1000E0000CA730CF2D1B083F3F197C427F1E544484
:1000F0002D090426F441641EAC4201D300F03FF800
:100100000126334200D0FB1A3343984754465D46DC
:10011000DFE70000FC5800001C5900000000000050
:10012000103A02D378C878C1FAD8520701D330C840
:1001300030C101D504680C60704700000000000069
:100140007047000000000000002300240025002666
:10015000103A01D378C1FBD8520700D330C100D583
:100160000B6070471FB501F0A1FC040000200021C6
:1001700004F044FE401C60601FBD10B510BD01F0CE
:100180006DFC1146FFF7EEFF04F0E4F801F092FC7D
:1001900003B4FFF7F2FF03BC01F046FD0648004739
:1001A000FEE7FEE7FEE7FEE7FEE7FEE70348044959
:1001B000044A054B70470000C1000000280A2020B7
:1001C00028102020280C2020280C20200FB400B557
:1001D0008DB010A909900B900020C04300910A90A7
:1001E00000200C90074878440690074878446A46F7
:1001F00007900F9909A801F0B9F80DB008BC04B038
:1002000018470000A7110000C1110000FFB51D46EE
:100210000027FF4383B05C68002001909E68A969B5
:1002200004987F1C88470090296A88470028F6D1E7
:100230000098401C0CD0032040028443002E19DD9E
:10024000600614D500982B2809D02D280FD103E083
:100250000020C04307B0F0BD012080020443A9691B
:1002600004987F1C8847761E002E009002DD0098BF
:10027000302803D00598002825D035E00120A96951
:1002800040020443761E04987F1C8847002E00908D
:1002900003DD782805D0582803D00598002810D011
:1002A00022E00598002801D010281DD10120A9695D
:1002B00040028443761E04987F1C884700901020DB
:1002C00002E0082000E00A2005900DE00121059AD7
:1002D00049020C430199761E514308180190A969FF
:1002E00004987F1C88470090002E05DD0599009832
:1002F00001F026F80028E9DAE96904988847A005A2
:1003000002D40120C043A5E7E00722D1600611D541
:100310006005019800D5404229680A1D2A600968D5
:10032000220501D5087014E0220701D5088010E0ED
:1003300008600EE02868011D29600068210502D5CB
:100340000199017005E02107019901D5018000E0C4
:10035000016038467EE701E004C0091F0429FBD292
:100360008B0701D50280801CC90700D0027070473E
:1003700000290BD0C30702D00270401C491E02297D
:1003800004D3830702D50280801C891EE3E7002284
:10039000EEE70022DFE70000002203098B4273D35F
:1003A000030A8B4258D3030B8B423CD3030C8B4282
:1003B00021D312E003460B437FD4002243088B4233
:1003C00074D303098B425FD3030A8B4244D3030BDC
:1003D0008B4228D3030C8B420DD30902FF2212BAA1
:1003E000030C8B4202D31212090265D0030B8B421D
:1003F00019D300E0090AC30B8B4201D3CB03C01A07
:100400005241830B8B4201D38B03C01A5241430BE1
:100410008B4201D34B03C01A5241030B8B4201D3D1
:100420000B03C01A5241C30A8B4201D3CB02C01A3C
:100430005241830A8B4201D38B02C01A5241430AB4
:100440008B4201D34B02C01A5241030A8B4201D3A3
:100450000B02C01A5241CDD2C3098B4201D3CB014A
:10046000C01A524183098B4201D38B01C01A5241F9
:1004700043098B4201D34B01C01A524103098B42FD
:1004800001D30B01C01A5241C3088B4201D3CB00E8
:10049000C01A524183088B4201D38B00C01A5241CB
:1004A00043088B4201D34B00C01A5241411A00D27B
:1004B00001465241104670475DE0CA0F00D04942E4
:1004C000031000D3404253409C46002203098B4254
:1004D0002DD3030A8B4212D38901FC2212BA030ADC
:1004E0008B420CD3890192118B4208D3890192115E
:1004F0008B4204D389013AD0921100E08909C309E3
:100500008B4201D3CB01C01A524183098B4201D3E4
:100510008B01C01A524143098B4201D34B01C01ACF
:10052000524103098B4201D30B01C01A5241C30847
:100530008B4201D3CB00C01A524183088B4201D3B6
:100540008B00C01A5241D9D243088B4201D34B00D1
:10055000C01A5241411A00D2014652411046634628
:100560005B1001D34042002B00D5494270476346DF
:100570005B1000D3404201B50449002802DC491C4D
:10058000084000E00846C046C04602BDFFFFFF7FAE
:1005900070477047704700000246C80FC00781438C
:1005A0004B0030B54B405B009B0D20D01923DB0680
:1005B000C91801231B05994220DB0324A407042545
:1005C0001346AB400BD3002B04D1EB0613409B002A
:1005D000E34204D401246407002312195941FF2384
:1005E0001B0599420BD2C9000143500F09E0CB0211
:1005F00004D501430803024305D0054830BDFF215F
:10060000C905084330BD084607210905884330BDA8
:100610000000C07FF0B50C46871A9C410D46861A33
:100620009D4103D2C01BA141D21963410D0D1F0D85
:10063000C94EEC1BAE435CD07F057F0D0026002F1A
:1006400051D02D05AC46A943DD020123ED0A1B055F
:100650001D4320231B1B24D41746E7403818714143
:100660002F46E740CC199D402818314661410C0DBA
:1006700027D161449A4013D50023401C59415200B0
:100680000ED14008400001224B005205D34207D34F
:1006900005204007C14201D5B04900E0B0493046CD
:1006A000F0BD6B00002A00D001229A181F23203CC5
:1006B0001B1B01D5002302E0E540281871410C0DF9
:1006C000D7D0012424050919C407CD0740084908DB
:1006D000E40F28436144002CD5D00024401C614124
:1006E0009A40D0D1CDE76A05520DD9D1C90FC907BB
:1006F000D5E79C4D4E00002801D0012400E00024E5
:1007000034195F00002A01D0012600E00026BE193E
:10071000954FAC420CD8AE420AD8B44206D001255F
:100720006D05EC42BCD010461946F0BD9942FCD094
:1007300000203946F0BDF0B51FB40C460F46811AB3
:100740009F412546861A9D4106D20125ED076F403F
:10075000401ABC4152187B41210D1E0D8D1BAC4629
:100760007D4D8D437ED075056D0D7CD00D05AE465B
:10077000AC431B031B0B794D52429D41202366461F
:100780009B1B14D31746F74038180026009074417D
:1007900060462F460741E41900989D40281866419D
:1007A00016D4714671189A4025D5012320E093187C
:1007B0002A466A415200002B00D0521C1E23203EC4
:1007C0009B1B002B61DD3541EE1728186641E8D5EB
:1007D000001876415B1C9A4000D3401C4B05F3186F
:1007E0001524E34010D3002B52D071467118D30F5B
:1007F000C01802D3491C05B0F0BD0123DB079A42A3
:10080000F9D140084000F6E701225205B21801D1A3
:10081000002853D00123CC0ADB029943891E002A09
:1008200008D1020C03D0020C0004103902E0024689
:10083000002020390023550B05D112020823550B47
:1008400001D152010D23550C01D112011B1DD50CF4
:1008500001D192009B1C150D01D152005B1C20257B
:10086000EE1A01E02CE022E00546F54015439840E1
:10087000CA1AE10769181305C918002ABBDA032050
:1008800040070818C10FC9070FE071466118B2E7A9
:10089000F10740080843711071444A000CD001234D
:1008A0005B059A42A7D2C90FC9070020A3E74905F3
:1008B000490D26D1002001E00028F4D100219AE75B
:1008C000284D6600002801D0012100E000217118A8
:1008D0005F00002A01D0012600E00026BE19224F49
:1008E000A94210D8AE420ED8B14208D001256D05FC
:1008F000E94206D01946A802414010467BE79C42D7
:1009000001D0214677E70020394674E710B50C4640
:100910005C4005D50124E4076340FFF70CFF10BDE0
:10092000FFF778FE10BD30B40C465C4004D50124BE
:10093000E407634030BC6DE630BCFCE670B50124D2
:10094000E40761400D465D4002D4FFF763FE70BDD1
:100950006340FFF7F0FE70BDFF0700000000F0FFEE
:100960000000F07F0000E0FF0000F87FF0B5F94DD7
:100970000C091E092C402E402F468BB0A7437DD07A
:10098000B543FCD0002E7AD0002CFCD00D465D4043
:10099000ED0F2543AC1BFF25AD0464190894C50277
:1009A000440DC9022143500DDC0204430120C0075D
:1009B00001430443D2020191200C110C00958C4696
:1009C000010423468B430A9161460904E24D8A43A0
:1009D0000991010A7D4449198039097805464D433A
:1009E00001266D18F605751B6943C90C640B891C3B
:1009F0004C436418B5012C1B250C2E04B4434C4306
:100A00004D43210C691889090591009DE90701D022
:100A10000121C90704912C4601996708CD072F438E
:100A20004C08059DE10B4D432D0C29466646754348
:100A300002950D4645432E46029D7D1BB44100950F
:100A40000D465D4301942C0C2F040D465543AE46D4
:100A50002D0C3D43029503947546049C2D04641BA4
:100A6000049406D2029C039D641C002675410395E4
:100A7000029401AC70CC009F7D1B01E03EE162E17D
:100A8000B44109040095079101940599A4086143B4
:100A9000090C0C464443650BE7040C466646744358
:100AA000A646640B3C43039502947446049DE404FB
:100AB0002C1B049406D2029C039D641C00267541E5
:100AC0000395029401AC70CC009F7D1BB44101944E
:100AD0000C465C430095650FE7000C465443A64660
:100AE000640F3C43039502947446049DE4002C1B60
:100AF000049406D2029C039D641C00267541039554
:100B0000029401AC70CC009F7D1BB441AE09AF06CE
:100B1000049DC900AD092F43049DA406AD060495AC
:100B2000079D344369180791059DE10B4D432D0C3A
:100B300029466646754302950D4645432E46029D5D
:100B40007D1BB44100950D465D4301942C0C2F0490
:100B50000D465543AE462D0C3D4302950394754614
:100B6000049C2D04641B049406D2029C039D641C07
:100B7000002675410395029401AC70CC009F7D1B4B
:100B8000B44101948C050694079C890A611800956C
:100B90000791019C0599A4086143090C0D46454342
:100BA000680BEF040D46644665436C0B3C43049FA1
:100BB000ED047D1BAC4602D20025641C6841009EFA
:100BC000019D371B85410846584301950C46460F49
:100BD000C5005443600F28436546E4002C1B02D235
:100BE0000025401C6E41019D3F1AB5412846BD09B4
:100BF000800628438446A009BF064E020699A40633
:100C000076180743079D002068410A990790194309
:100C10000020099B00906046FF1913434041E20FFA
:100C200064003A43A4460446D71A8C41A04203D933
:100C30000120009020463A46C70F94184041624672
:100C4000D20F2243644664000494009CBE466400B4
:100C5000D71AA446044602978C417746002F01D14B
:100C6000A04204D96046401C8446029A2046C40F24
:100C7000A64694184041049A0546D20F2243644682
:100C80006400D31A8D417146002901D1A84202D9CE
:100C900028461A46641C10430122002800D016433F
:100CA00061020020079B891904465C410223002C45
:100CB00002DB491813466441089DCE0A2D145D19C4
:100CC0004B056705E10A2C050D1908993E43C90734
:100CD0006940002B08D0934006D30022761C514176
:100CE000002B01D1760876001C4A002D43DB15420B
:100CF00041D0AA433FD030460BB0F0BD06180D4698
:100D00004D41174C7642AC411AD395181C465C41B4
:100D1000134A6D42A24113D3012252054C00D44222
:100D20000AD15C00D4420BD04B4002D59202114351
:100D3000E2E749004908DFE75940C90FC90718E051
:100D400000200849D8E7054801420DD10342F7D0F9
:100D5000F2E700000000FF07884800000000F07F75
:100D60000000E0FF0000F87F114859400143C01225
:100D700041400020C0E70123089A9B069A4205DC07
:100D8000032252078918C90FC907B5E70522520780
:100D90008918074A1143D2125140ADE770B5154684
:100DA0001C4602460B4628462146FFF7DFFD70BD74
:100DB000FFFFFF7F0346CA02400D10B510430A151E
:100DC00004D00124E4072043002A05DB0A4CA21AC0
:100DD00004D4D040FF2A00DD002010BD4A00002BC3
:100DE00001D0012000E00020101801225205D0425D
:100DF000F2D8C817C04310BD1E0400001F22030C08
:100E000002D10F22000402D0030E03D004E0002020
:100E1000014670470002083A030F01D10001121F7A
:100E2000830F01D18000921E002801DB4000521E7A
:100E3000120551184205C012411810467047C10FE3
:100E4000C90700D04042012292071143D6E7012191
:100E50008907D3E7F0B58B4C0F09254689B0BD4310
:100E60007BD01D092646AE43FAD00E465E40274091
:100E7000F60F3E43254071D024012142FBD0FF24D0
:100E8000AD19A4042D1B039501252D05DB02DB0AFA
:100E9000C9022B43C90A29431E010901040F130F7C
:100EA000050121431701880B820391432D098C46CC
:100EB000A90B1E438A039543B30B9A0396433F093C
:100EC000BA0B9403A74302962E467E430497B64678
:100ED0004E19D7190C460196544305977E43371B8C
:100EE0007646BF1B3601B646BE0B361900967646CF
:100EF000BC043719009C01D3641C00946400002FCB
:100F000001D001263443029E049F754366467E430A
:100F10000496760034196E0034190094029C019EE8
:100F20001C196643751BAE46069465464519059C1B
:100F300005956C43594375460891691A0191049EC1
:100F400001465143A41B0491611A009C0791E106DC
:100F500005D061090122114302E072E06EE06109EF
:100F6000089D00272C0A2D066918049D7C412A0A39
:100F70002D066918019D6241AC0DAD026D185441FA
:100F8000079A910D920255196141029A644658439D
:100F90005443069B059A5A43121A131B9A0E9B013F
:100FA0005B187A41010B0005C3185141220A200643
:100FB00044195A419A4200D2491C01204002814200
:100FC00003D315230226F64302E014230326F64337
:100FD0002020C51AA9401746AF40DA400A432046F0
:100FE0000399D8400914731819055118039A384306
:100FF000D2075140AC4009D00122944006D30022D0
:10100000401C5141002C01D1400840001E4A93422F
:1010100012D3012203989206904207DB0520400775
:1010200009181A480143C012414004E00320400758
:101030000818C10FC907002009B0F0BD0020F10752
:10104000FAE705180C464C4111486D42A04115D3F2
:1010500094181A465A410E48644290410ED301201A
:101060004A004005824209D35A00824206D35940C1
:10107000C90F084AC90700201143DDE700200649CF
:10108000DAE700000000FF07FE070000FFFFFF7F18
:101090000000E0FF0000F07F0000F87F0121C9059B
:1010A0000123411842001B06D3185B0E0AD0C11061
:1010B0000722D206891840075242D14201D5520078
:1010C00089187047090208D50146002A03D0C10FCC
:1010D000C9070020704710467047420202D0002026
:1010E00002497047072109050143F4E70000F87F32
:1010F000F0B5FF252D04C609C209FF2704462E407E
:101100000137CB093E4348402A402B400746002A7E
:101110006BD0002B69D0AA4267D0AB4265D00028C3
:1011200000DA32460125ED0529432C43090220024D
:10113000090AD21A4B0C7F24E31A434C000A7C4460
:10114000E35C7D242404121914145B00A218884265
:1011500001D3521C00E0400049420C465C4324117C
:101160005C43DB016415E318040A5C43C502200DEF
:101170000C4644436419250A5D432303EC0C0D46D9
:10118000654300030019EB184C42A34201D35B18DE
:10119000401CD4052018002B07D05B00C91804D3CD
:1011A000401C002901D1400840003F2189048A42A7
:1011B00009D3002A08DC1106090F04D003214907CE
:1011C0004018C00FC007F0BD012241001206891867
:1011D0007F2252069142F6D205214907C84201D525
:1011E0009010F0BDFF20C005F0BD002F00DA3246A0
:1011F0001648AA4207D2AB4205D21902090E17D0EF
:10120000F80FC007F0BDFF2563002D06AB42F9D8EB
:101210004900A942F6D8AB4201D1A942F2D0A94275
:1012200001D1002101E061004908D0050843F0BD6B
:101230001102090EFBD0FF200243D005F0BD0A4683
:101240000146104654E700009E4100000000C07FA8
:1012500010B501469E240002CA15A307002A02D039
:101260001843002A04DBA21A002A0CDDD04010BD6E
:101270001206120E01D140004008A21A03D4D04039
:1012800040420028F3DDFF2248001206904201D9B7
:10129000002010BDC817C043584010BD0102C21540
:1012A00004D00123DB071943002A0ADB9E239A1A84
:1012B00002D40846D0407047FF22410012069142F6
:1012C00001D900207047C017C04370471F22030C8C
:1012D00002D10F2200041CD0030E01D10002083AF3
:1012E000030F01D10001121F830F01D18000921E54
:1012F000002801DB4000521ED2055118021251187D
:101300001922904004D3491C002801D14908490002
:1013100008467047C10FC90700D04042012292071A
:101320001143D3E701218907D0E710B500F042F956
:10133000006810BD10B5044600F03CF9046010BD13
:101340003A2800D23038202302469A43412A01D35A
:1013500010463738884201D30020C0437047000050
:1013600002685118137801601846704710B5D160B3
:10137000054979445161054979441162002111619F
:10138000114600F025F910BDEBFFFFFF4102000000
:101390004268002A08D001680B78491C002B03D052
:1013A000521E06C0184670470121C160881E704752
:1013B0004268002A0BD0C3680168002B07D18368FC
:1013C0008B4204D0491E521C06C0002070470020EA
:1013D000C0437047F0B501230A0DDB0200249A4395
:1013E000E4430025002A28D05B1E9A4223D05B10DC
:1013F000D61AA64228DB721C48D0342E18D20222FC
:10140000142E2BD822D00B460D36B34001D1002824
:101410000FD00024701E0B468340DB0FF24128469C
:10142000551EA943002B03D08918002C00D09143EE
:10143000F0BD0124EEE79A4239D04A000243F7D0CA
:10144000C90FC9072846F0BD002223E00122C30FBF
:10145000400001D00024E2E70124E0E70346133E08
:10146000B34011D00023741E0746A740FC0FF24181
:101470001746521E9043002CE5D0002B00D0521C82
:10148000C01969419043F0BD0123ECE701220B0331
:1014900018430AD00023C90FC9072846002AF2D0F2
:1014A000002BF0D1054A1143F0BD0123F3E70A03F5
:1014B00001D10028F8D000200149F0BD0000F03F24
:1014C0000000F87F70B505464800440D124B00201F
:1014D000002C0AD0634008D09A4206DA6642B24233
:1014E00003DD12054019514170BD002C08D0002BBE
:1014F00009D0C90FC907002AF6DB084A114370BD9D
:10150000C90FC90770BD28460A03104302D0002046
:10151000034970BD284670BDFF0700000000F07F42
:101520000000F87F30B5C30D1906214A090E31D0ED
:10153000FF292FD000283ADB01025002014301208D
:101540007D33C34000D24908012080071724091ABF
:101550002406490882102343FF252D064C00211A3A
:1015600004D4891A02D45400201800E021465208FD
:101570005B19F3D51A220446944007D382068A42A7
:1015800003D180218030884300E08030C009D90534
:10159000081830BDFF2904D04100FAD0C00FC007A1
:1015A00030BD410201D0104630BD0028FCDAFAE718
:1015B0000000C07F004870472800202010B5044676
:1015C00000F06CFA0068005DC007C00F10BD00009D
:1015D000F3B50C468FB000200C90012000260E9031
:1015E00008460C3003906269039801219047051E5C
:1015F0002ED0252D2DD0216A8847002818D0626969
:10160000039801219047216A88470028F7D1626931
:10161000411E0398904700E0761CA1690F98884707
:10162000216A88470028F7D1E1690F988847DAE7EF
:10163000A1690F988847A842074601D1761CD2E7D6
:10164000E1690F9888477F1C02D10C98002877D059
:101650006BE16269039800273D46394690472A2886
:101660000CD16269039801219047012506E00A2107
:101670004F433F18303FEBD4102005436269039875
:1016800001219047014630390A2903D2AC498F42E3
:10169000DEDCECE7E90600D4AA4F6C280AD04C281F
:1016A00010D0682824D06A282ED074280CD07A282C
:1016B0000AD00DE062690398012190476C2823D07D
:1016C00004211CE020200543626903980121904712
:1016D000A760652865604FD026DC582839D01ADC11
:1016E000452849D012DC252834D04128B0D143E028
:1016F0006269039801219047682802D008210D43B0
:10170000E6E70120C002DEE70220DCE7462833D00E
:1017100047289DD130E05B2870D061282CD0632809
:101720006CD0642894D161E06F284FD009DC662822
:1017300022D0672820D0692826D06E2817D12EE025
:10174000EFE070284DD073286FD075284ED07828E0
:101750000DD154E0A1690F9888472528054600D18E
:101760006CE7E1690F9888476D1C00D16DE7DCE0FC
:101770000A224CE00A2252E0012023466A460F99D1
:10178000C043C046C046C5E0402128462346084322
:101790006060A80701D5002239E000223FE0E80799
:1017A00000D020E72068011D21600068290501D5CF
:1017B000067018E7290701D5068014E7A90703D5A5
:1017C000F117066041600EE706600CE740212846ED
:1017D000234608436060A80701D5082217E00822C5
:1017E0001DE0594928460840606016E0402128461F
:1017F000234608436060A807BCD5B9E715E040213F
:10180000284608436060A80707D523461022012018
:101810000F99C043C046C0467CE0102223460120F9
:101820000F99C043FEF7F2FC74E0002163280B46D9
:101830000191009102910D9102D05B2807D03BE00D
:10184000E80601D40120A0600120009034E0E068A7
:1018500001210D906269039890475E2807D101200D
:101860000190E06801210D90626903989047216919
:10187000002906D10B4604AA8F00491C0829D35120
:10188000FADB002851D02169002926D00298401C9B
:10189000029062690398012190475D28F1D1019877
:1018A000002808D0002004AB8100401C5A58D243C5
:1018B00008285A50F8DB04AB2069002820791CD096
:1018C0004007029A00980D9B0092224602901F4802
:1018D0000F991DD5C046C0461CE0C117C90E091896
:1018E0004A114909930004AA9A184901411A136838
:1018F0000120884003431360CBE74007224613488A
:101900000F9902D5C046C04604E0C046C04601E07B
:10191000C046C04600280ADA401C06D10E980028AE
:1019200003D00020C04311B0F0BD0C98FBE7E907DD
:1019300002D10C99491C0C91361800200E9052E6E9
:10194000CCCCCC0CFFFFFF7FF1F7FFFFFEFFFFFFCA
:10195000F8B5264C4E00069DA6420AD8A64201D1F3
:10196000002806D15E00A64203D8A6420AD1002A6A
:1019700008D00D242404254233D02946002000F04D
:10198000A1F8F8BD0C461C4311D4994207D0C81ADF
:1019900002D3EFF30080F8BDEFF30080F8BD801AAA
:1019A00002D3EFF30080F8BDEFF30080F8BD092407
:1019B0002407E5008B4207D0581A02D3EFF30080CA
:1019C00006E0EFF3008007E0101A03D3EFF3008086
:1019D000A04303E0EFF30080A043284380F3008896
:1019E000F8BD009500F086F8F8BD00000000E0FFAB
:1019F00010B5FF231B0644009C421DD84C009C429E
:101A00001AD80346124A0B4307D4401A02D3EFF305
:101A1000008010BDEFF3008010BD081A03D3EFF370
:101A20000080904305E0EFF3008001219043C90757
:101A3000084380F3008810BD0D231B041A4204D014
:101A40001146002000F03EF810BD00F05DF810BD1A
:101A50000000009000487047280020207546FFF7DE
:101A6000F9FFAE46050069465346C008C0008546EA
:101A700018B020B5FEF79AFB60BCB64600260027DA
:101A8000C0C5C0C5C0C5C0C5C0C5C0C5C0C5C0C52E
:101A9000403D490849008D467047000010B500F0F0
:101AA00005F8001D10BD00BF553300000048704709
:101AB0004800202010B50446C046C0462046FEF728
:101AC00067FB10BDC80212D54803400F002804D0A0
:101AD000C803C043012188407047EFF30080000134
:101AE000000903210907084380F30088704700209C
:101AF0007047000010B500200249029A00F064F817
:101B000010BD00000000F87F10B5024800F05CF83E
:101B100010BD00000000C07F82078B079A423FD1B2
:101B200070B5920F0AD0032402780B78401C491C30
:101B3000002A33D09A4231D12042F5D1214EF4010E
:101B400004C808C9951B9543254018D19A420FD166
:101B500004C808C9951B9543254010D19A4207D166
:101B600004C808C9951B9543254008D19A42E7D07F
:101B700012BA1BBA01209A4200D2404270BD12BA7A
:101B80001BBA2DBA18241000E0401900E140401A99
:101B900005D12E00E64002D1083CF4D1D01A70BD28
:101BA00002780B78401C491C002A09D09A4207D1C0
:101BB00002780B78401C491C002A01D09A42EFD0D1
:101BC000D01A70470101010110B50C461107090F29
:101BD000092904D00A290AD008290CD104E01146A9
:101BE0000820FFF76FFF06E0510606D501E0510619
:101BF00001D50120C007214610BDD10607D501013E
:101C00000909CC084907000E0006044309E0410F0A
:101C100020024907000A0143200E00061D22D1417F
:101C200001430846E7E7000001491820ABBEFEE784
:101C30002600020070470000F0B589B000F03CFDBE
:101C4000784E706D014603F04BFA0546F46C37464A
:101C50002046214603F044FA294603F07DF9366D0B
:101C600003F0B6F801463046FFF742FAFFF716FADE
:101C700002F052FF089007913046314603F030FAE7
:101C8000294603F069F903F0A3F801462046FFF75F
:101C90002FFAFFF703FA02F03FFF05900491B86CAA
:101CA000614C214603F01CFA0721CD062946029516
:101CB00003F016FA03905D490860B86D214603F001
:101CC0000FFA294603F00CFAFFF7E8F907460E462B
:101CD00057480068FFF7E2F905460C46554A564B4F
:101CE00038463146FFF7B6F82A462346FEF70EFE81
:101CF000FEF752FC06904E4908604A48C06D4A49BA
:101D000003F0EEF9029903F0EBF9FFF7C7F9044687
:101D10000D464A480068FFF7C1F906460F462046BF
:101D20002946444A444BFFF795F832463B46FEF7B6
:101D3000EDFDFEF731FC0190404908600398FFF784
:101D4000ADF904460D463E480068FFF7A7F907467F
:101D50000E4620462946374A374BFFF77BF83A466E
:101D60003346FEF7D3FDFEF717FC039034490860B5
:101D7000032042070292334B05980499FFF76AF853
:101D8000FEF70AFCFFF78AF907460D460198FFF7B0
:101D900085F92D4A2D4BFFF75DF806460C462C4A77
:101DA0002C4B38462946FFF755F832462346FEF7B6
:101DB000ADFDFEF7F1FB1B494860274B08980799DA
:101DC000029AFFF747F8FEF7E7FBFFF767F90446CB
:101DD0000D460698FFF762F91B4A1C4BFFF73AF8CD
:101DE00006460F4620462946194A1A4BFFF732F895
:101DF00032463B46FEF78AFDFEF7CEFB094E3060C9
:101E00000398FFF74BF904460D46144A144BFFF7AD
:101E100021F822462B46FEF779FDFEF7BDFBB060A8
:101E200009B0F0BD940920200000FA448800202069
:101E3000F80920207B14AE47E17A843F080A20206D
:101E40002407202094A94CC0A09999999999A93F59
:101E5000666666666666EE3F94A94C4085B69C4B06
:101E60007155C53F811E091F00BFFCD2704710B5D8
:101E7000002A0FD091235B01C3180020DC692405E0
:101E8000240F05D00C5C1C60401C8242F6D1104629
:101E900080B210BD002080B210BD0000084A8358F7
:101EA00080210B43835080180F2212024368134095
:101EB0000122D2029342F7D102688A43026070473E
:101EC0003812000070B50A780C231A40012424034C
:101ED00005196E689E43B2186A604978072211405E
:101EE000035993435918015170BD0000F0B584B0F7
:101EF000012422022A4B1968039291431960354943
:101F00000D686D04FCD5457E25409E69A643741975
:101F10009C612024045D03252C40DE69AE43341906
:101F2000DC61204C256805262660466A37681F62FA
:101F300076685E6207262E402660C4697F252D02E2
:101F4000DE69AE436406640C3419DC6107684568D9
:101F500082680092C66802690192426902929A6997
:101F6000114C14403A07120B2D03ADB2AA1832439C
:101F7000009D2D072D0D1543019A1543029A154317
:101F8000007E2843094A0240101998611868039A94
:101F90001043186008688005FCD504B0F0BDC04649
:101FA00008010B40001340408D00F0FF72FF0F004E
:101FB00007498860074802689202FCD50122120492
:101FC0000B6813430B600168C906FCD57047C04617
:101FD00004010B4004020B4070B582B00B794A79C2
:101FE000002A24D0174A21242401202B00D0703449
:101FF0008218002B00D18824156C3F4E35402D19D6
:102000001564556C35402C1954641468794D2C4076
:10201000146054682C4054600024146254628F246D
:10202000E443156D25401565556D254055656A4697
:1020300013718B79537109680091114600F004F80F
:1020400002B070BD38180000F0B5684A8218294BFC
:10205000C318087920280DD000281DD10C68641EF3
:102060005460D56E244C25408835D56616467036AA
:1020700088251DE00C68641E5460D46E1E4D2C40F3
:102080001E4EA419D466146F2C40A41914670124A1
:1020900065071B4C16460BE00C6864085460D66E4E
:1020A000154C26400525ED017619D6661646703684
:1020B000376827402F433760D46A4E4D2C40D46296
:1020C000146B2C4014630024D46414658F24E443FF
:1020D000D56F2540D5671D6825401D6049790143AE
:1020E000BD2008401168074B0B40C018801C1060D1
:1020F000F0BDC0468418000024493E0001040000E1
:10210000FFFFFFCF4000FFCFB0B54A68364BC2504B
:10211000364A80180A78222A58D8930001A4E35836
:102120009F46C046C3210000CD210000C32100000E
:10213000CD210000CD210000CD210000CD210000E7
:10214000CD210000CD210000CD210000CD210000D7
:10215000CD210000CD210000CD210000CD210000C7
:10216000CD210000B1210000CD210000B1210000EF
:10217000CD210000CD210000CD210000CD210000A7
:10218000CD210000CD210000CD210000CD21000097
:10219000CD210000CD210000CD210000CD21000087
:1021A000CD210000B1210000CD210000B1210000AF
:1021B00003231B0704689C4301235B07E3180360A8
:1021C00004E003231B0704689C4304600B8AC3607C
:1021D000CB68074C1C40C36A064D1D402B19C362D7
:1021E000097A11430160B0BD08180000041800000E
:1021F000777702008888FDFF10B507239B041940FC
:1022000092008018024A84589C436118815010BD86
:102210003018000010B5029CA400001911431943A6
:10222000014A815010BDC04650180000920080182D
:10223000014A81507047C0461018000010B50122B5
:10224000120383180C789C604B7883508978014A7C
:10225000815010BD0C110000B0B51122120283583C
:102260000124A34383500B888C781C438B88234321
:10227000094C1C408358094D1D40631983508B79CC
:10228000CC791C43097A21437E2319408018426887
:102290009A4351184160B0BD18670000E798FDFFF0
:1022A00010B50122120383180C789C604978815084
:1022B00010BD000070B52848006880074BD5012389
:1022C0002649084610380468600625480ED50A6875
:1022D000402515430D6002680568520606D4026861
:1022E000120603D4E54A15686D1E15605A022506CC
:1022F0000ED50D6880262E430E60056806682D06F3
:1023000006D405686D0603D4DC4D2E68761C2E605D
:10231000254615401B02E4050DD50C681C430C60D6
:10232000046806681C4206D10468144203D1D44CE8
:102330002668761E2660002D0DD00C6814430C60B4
:1023400001680468114206D10068184203D1CC48E4
:102350000168491C016070BD4011404048300A408E
:1023600080330A40F0B581B01C46154607466A46E0
:1023700011701D4811461A46FFF779FD1B4EB068D3
:102380008006FCD530681A4908407F00C0193060CB
:10239000706818490840184940187060B0684006D5
:1023A000FCD4B0688006FCD50F48FFF777FD306895
:1023B0000F490840074301203843306070680D49D9
:1023C000084021040143072008437060002C08D016
:1023D0000020F16A0907FCD0F1682954401CA04292
:1023E000F7D101B0F0BDC04600200F4010320F40C1
:1023F00000F8FFFFF8FF00F007000100F0B581B022
:1024000001200706134D2F61C6052E6002242046C9
:1024100001F042FF2F60204601F03EFF2E650E487E
:102420000E49016038490968812202602E642F61DB
:1024300008020CD52E610224204601F02DFF2F60EA
:10244000204601F029FF2E60204601F025FF01B053
:10245000F0BDC04690120A40D48042408100060080
:10246000F0B582B001218804274C26680640B20CE2
:10247000264801920270880322680240930B244888
:1024800000930370480323680340580B214D2870C4
:10249000256810242C4025091F4F3D701F4D2F78B3
:1024A000002F0AD0002E08D0002A06D0002B04D01E
:1024B000002C02D0781E002121E0009B5A425A4194
:1024C000019B5E425E4143424341654265410020BB
:1024D000002F16D116431E43354312D00098002812
:1024E00001D0032000E002200C4D019A002A00D008
:1024F0000146002E02D1A008042141400520287089
:10250000084602B0F0BDC04680130A400D002020EE
:102510000E0020200F002020100020208C00202002
:10252000F0B581B014460D4606467F20C005114621
:1025300002F02EFE07462846214602F0D1FD044651
:102540003046394602F0CCFD214602F005FD01B0CF
:10255000F0BD0000F0B583B000244848065F046079
:102560004749085F0C60FEF76AFC464D464B2A4619
:10257000FEF7FCF903229707444B3A46FEF76AFC44
:10258000434B22460294FEF765FCFEF705F80190E6
:10259000404908603046FEF752FC2A463A4BFEF7A7
:1025A000E5F93A46394BFEF755FC2246384BFEF723
:1025B00051FCFDF7F1FF0121C9074140364A116086
:1025C000FEF76CFD06460F4634480068FEF766FDD0
:1025D00005460C46324A334B30463946FEF73AFC44
:1025E00002460B4628462146FEF79DF9FDF7D4FF2B
:1025F00000902A4908600198FEF750FD04460D46F8
:1026000029480068FEF74AFD07460E46204629463F
:10261000234A244BFEF71EFC3A463346FEF776F972
:10262000FDF7BAFF0546204805600098FEF736FD25
:102630001E4B029C2246FEF70DFC07460E4628461E
:102640002546FEF72BFD2246184BFEF703FC0246FB
:102650000B4638463146FEF759F9FDF79DFF144CFD
:102660002060144902F040FA002804D10B480560AC
:1026700025600D48056003B0F0BDC046B0002020C5
:10268000BC0020203333333333333B40CA2109406D
:1026900000C04640C4002020B8002020B400202004
:1026A0007B14AE47E17A843FC00020200000E03F69
:1026B000AC00202000401C46F0B58BB068203B21C8
:1026C00007AC0E232246FFF74DFE607807990902FA
:1026D0000E18D34F3E82E078A17809020D187D8252
:1026E00060790899090208180390B882607A0999FC
:1026F000090208180490F882E07AA17A0902081801
:1027000005903883607B0A9909020A18E079A1795B
:1027100006927A830902081800B2FEF7FBFDC14950
:10272000FEF7E6FCC04902F017FCF860BF480188DC
:10273000C72900D98AE0491C018030B2FEF77FFB2F
:1027400000220292C74BFEF711F906463C460F469F
:10275000E069FEF7A3FC02460B4630463946FEF719
:10276000D5F8FDF719FFE06128B2FEF768FB029C7F
:102770002246BC4BFEF7FAF806460F46A84D286ADB
:10278000FEF78CFC02460B4630463946FEF7BEF893
:10279000FDF702FF2862039800B2FEF750FB2246C5
:1027A000B04BFEF7E3F806460F46686AFEF776FC84
:1027B00002460B4630463946FEF7A8F8FDF7ECFE18
:1027C0006862049800B2FEF73AFB2246A54BFEF77A
:1027D000CDF806460F46A86AFEF760FC02460B4697
:1027E00030463946FEF792F8FDF7D6FEA862059806
:1027F00000B2FEF724FB22469A4BFEF7B7F80646D6
:102800000F46E86AFEF74AFC02460B463046394658
:10281000FEF77CF8FDF7C0FE2E46E862069800B28F
:10282000FEF70DFB22468F4BFEF7A0F804460D463F
:10283000306BFEF733FC02460B4620462946FEF776
:1028400065F8FDF7A9FE30630BB0F0BD039800B248
:10285000FEF760FD0390F86328B2FEF75BFD02907F
:10286000B86330B2FEF756FD3C46074660630498F5
:1028700000B2FEF74FFDA16A02F08AFC04902064CA
:10288000059800B2FEF746FDE16A02F081FC059072
:102890006064069800B2FEF73DFD216B02F078FC03
:1028A0000690A06462480068624902F055FB054644
:1028B000614902F051FB01462846FEF719FC064625
:1028C0007F20C40520460194314602F061FC014698
:1028D000284602F005FC5649086058480568384605
:1028E000294602F055FC0146304602F0F9FB294624
:1028F00002F032FB074651480760514800684D49D5
:1029000002F02AFB06464C4902F026FB01463046FF
:10291000FEF7EEFB05462046294602F039FC01464B
:10292000304602F0DDFB46490860464C26680298B6
:10293000314602F02DFC0146284602F0D1FB31461B
:1029400002F00AFB054620603846FEF781FCFEF7E0
:10295000E1FC334CE0642846FEF77AFCFEF7DAFC33
:10296000206539480068334902F0F6FA05463249D5
:1029700002F0F2FA01462846FEF7BAFB0646334C4F
:1029800027680398394602F003FC0146304602F0FE
:10299000A7FB394602F0E0FA07462060019831466D
:1029A00002F0F6FB0146284602F09AFB2649086031
:1029B0003846FEF74DFCFEF7ADFC194C6065244926
:1029C000049802F08DFB0646224F3868224D2946B6
:1029D00002F086FB314602F0BFFA3860A065059828
:1029E0001B4902F07DFB06461C4F3868294602F061
:1029F00077FB314602F0B0FA3860E065274606986A
:102A0000134902F06DFB0446154E3068294602F06A
:102A100067FB214602F0A0FA306038660BB0F0BDCB
:102A2000940920200000AA43B81E12429C002020D6
:102A3000000020206F12833A0C020B3F94002020EC
:102A40000800202098002020040020209000202052
:102A5000CBA1C53EA00020201A2F1D3FA40020209E
:102A6000A80020200000694010B50020F049802215
:102A70000B4600241C70521E0833002AF9D1491C51
:102A8000401C0828F3D100F0A1F810BDF0B581B0CA
:102A9000AE200024214600F011FE2046214600F021
:102AA0000DFE1020214600F009FE40273846214641
:102AB00000F004FE8120214600F000FECF202146D8
:102AC00000F0FCFDA120214600F0F8FDC8202146C1
:102AD00000F0F4FDA6252846214600F0EFFDA820D1
:102AE000214600F0EBFD3F20214600F0E7FDD3201A
:102AF000214600F0E3FD2046214600F0DFFDD52011
:102B0000214600F0DBFD80263046214600F0D6FD50
:102B1000D920214600F0D2FDF120214600F0CEFD63
:102B2000DA20214600F0CAFD1220214600F0C6FD41
:102B3000DB20214600F0C2FD3846214600F0BEFDF4
:102B40002020214600F0BAFD0220214600F0B6FD0B
:102B50008D20214600F0B2FD1420214600F0AEFD8C
:102B6000A420214600F0AAFD2846214600F0A6FD3B
:102B7000AF480146324600250D700831521EFAD189
:102B8000401C641C082CF4D100F020F8AF2029462A
:102B900000F094FDA620294600F090FDC8202946AB
:102BA00000F08CFDA120294600F088FDA04880217E
:102BB0000246002313700832491EFAD1401C6D1CD6
:102BC000082DF4D100F002F801B0F0BDF0B587B0E7
:102BD0000120C40507060020574D00900497059476
:102BE00017E02F46544D2F60059C2C60022630467E
:102BF00001F052FB06980760304601F04DFB069845
:102C00000460304601F048FB0298401C082800D1BF
:102C100090E002905038C0B2009E314600F04EFD68
:102C20003046314600F04AFD1020314600F046FDA6
:102C3000284610380460069007600226304601F0EE
:102C40002BFB2C60304601F027FB2F602F6078268D
:102C500000992C4612E0059820600225284601F0D4
:102C60001BFB049F06980760284601F015FB2760B0
:102C70000399481C76000729014608D2276070B2E4
:102C800000280391E7D5059806990860E5E7FFF766
:102C9000B5FB29490F604025002611E00860069C1D
:102CA0000220039001F0F8FA049F2760039801F0D6
:102CB000F3FA21490F60701C6D00072E064607D2FB
:102CC0000F6068B200280598E8D5069C2060E7E709
:102CD000FFF794FB002001903D4606E0FFF78EFBD6
:102CE0000398401C802800D17BE70390C000504926
:102CF00008180299465C104F3D60019C12E005984F
:102D000038600225284601F0C7FA04990698016048
:102D100028460D4601F0C0FA3D60601C7600072C85
:102D20000446DBD23D6070B20028E8D505980699CC
:102D30000860E6E707B0F0BDA0120A40F0B589B020
:102D4000082B01D1062407E05C07DD08002C00D029
:102D50006D1C5C086C43E4B20494102B64D1049C99
:102D6000002C61D00E9C0794203AD2B200251401A9
:102D70002E4A121901920295044603930090019A7B
:102D80000595535DE0B208900691029A204607E04F
:102D9000BA432A700446721C491C5B08072E2CD2C9
:102DA0001646DA0762B213D1002AF4D4CAB23F2A17
:102DB000F1D807240C400127A740089CE4001C4DD3
:102DC0002C19D508625D6519079C002CE0D112E032
:102DD000002AE0D4CAB23F2ADDD807250D400127DA
:102DE000AF40089CE500124C6519D4082A5D2D19E6
:102DF000079C002CCCD03A43CBE7621CD1B20098A0
:102E00000C1A082C02D0039B069902E0069908319F
:102E1000039B082C0446059D00D01446102B03D1BB
:102E20006D1C049AAA42AAD809B0F0BDB85300009C
:102E300030012020F0B58BB01446089106460027DB
:102E400010460A9319463A463B4601F02AFE13996A
:102E5000129D119A0792002805910396099408D1B2
:102E600000912B22304608992B46FFF767FF0A9EF8
:102E70001CE0002220460A9E3146134601F006FE61
:102E8000002808D0059800902022039808992B4626
:102E9000FFF754FF0AE0059800902D220398089947
:102EA0002B46FFF74BFF0120C007464010980690C5
:102EB0000A95083D6C426C41099D28463146FDF754
:102EC00079FF0190FDF7C3FF02460B4628463146C5
:102ED000FDF729FD0546099107980126002804D031
:102EE0000A214E43401E0106FAD16000029030468E
:102EF000FDF7ADFF02460B4628460999FDF7AAFFEC
:102F000001F018FFFDF756FF0490314601F046FC32
:102F10000A9949080991069B002B2ED00399099D17
:102F200069180A9A082A00D1AD1C019A86180298DD
:102F30000C1817E00121304601F030FC0A21FDF7A2
:102F40002BFA0598009030220A432846784300194E
:102F5000C0B208990A9BFFF7F1FE7F1CF8B2069BEE
:102F600098420AD2F843C0180106E3D001210A2290
:102F70005143401E0206FAD1DDE7059F00970998EC
:102F800002990C18581C6043039D4019C0B22E22B0
:102F9000089E31460A9BFFF7D1FE079A002A2DD0E2
:102FA0000698801C60430A99082902D10999891C56
:102FB00009914419002516E00121049801F0EEFB67
:102FC0000A21FDF7E9F9009730220A43099868437E
:102FD0000019C0B231460A9BFFF7B0FE6D1CE8B283
:102FE000079A90420AD2E84380180106E4D00121F2
:102FF0000A225143401E0206FAD1DEE70BB0F0BDB3
:10300000F0B585B002AC07C4002B36D01C460A9D33
:103010006808082D00D1801C01900B9F002610E04D
:10302000009730200143CAB20198704302994018BA
:10303000C0B203992B46FFF781FE761CF0B2A04286
:103040001BD2F0430019010606D001210A22514388
:10305000401E0206FAD100E00121049801F09EFB17
:103060000A21FDF799F90029DAD1009701987043F8
:1030700002994018C0B23022DBE705B0F0BDF0B5D0
:1030800085B01C46164607460B980A9D012A0391F7
:10309000029007DB019600902B2238462B46FFF763
:1030A0004DFE12E0002E08D000902D2238462B460F
:1030B000FFF744FE7642019607E000902022384652
:1030C0002B46FFF73BFE002001900495083D684227
:1030D0006841002C28D04000049949084518EE1991
:1030E000002716E00121019801F058FB0A21FDF7A5
:1030F00053F90298009030220A43284678438019F9
:10310000C0B20399049BFFF719FE7F1CF8B2A042DE
:103110000AD2F84300190106E4D001210A225143E2
:10312000401E0206FAD1DEE705B0F0BDF0B583B06F
:103130000646177838462038C0B25E281CD8082BBF
:1031400001D05D0800E0062508980190541C029506
:1031500001980090F0B2FAB20D461F46FFF7EEFD5F
:103160003B462946029D7619601C27783A46203A4C
:10317000D2B25F2A0446EBD303B0F0BDF0B589B0FC
:1031800037480078052800D920E24000784480883C
:103190004000874405006F00C20023019C01CA0162
:1031A000012400942E2000262EA2102531462B4605
:1031B000FFF7BCFF00942DA23046079629462B4608
:1031C000FFF7B4FF2A480278009501941E20294693
:1031D0002346FFF715FF009428200890FCA22946FB
:1031E0002B46FFF7A3FFFB480278009501943C2093
:1031F00029462346FFF704FF00942027F6A2304615
:1032000039462B46FFF792FFF54802780095019466
:103210003226022330463946FFF7F2FE009430276B
:10322000F0A2079839462B46FFF780FFEE48027858
:1032300000950194089839462346FFF7E1FE009473
:10324000EAA2304639462B46FFF770FFE84802787D
:1032500000950194502039462346FFF7D1FEB3E193
:10326000EF0520204D61696E0000000074693A008E
:103270006507202001260096282000250895DDA25C
:10328000102429462346FFF751FF0096DBA228466B
:1032900021462346FFF74AFFDA480068FDF7FEFEA5
:1032A00002460B46022503210791009101950695E0
:1032B00002940396232005902146FFF7BBFD00965C
:1032C0002027F8A2089839462346FFF72FFFF44835
:1032D0004068FDF7E3FE02460B4607980090019513
:1032E00002940396059D28463946FFF7A3FD0096F4
:1032F0003027EEA2089839462346FFF717FFE84823
:103300008068FDF7CBFE02460B46079800900698B2
:1033100001A951C12846394654E1012400940026F0
:10332000D6A21025304631462B46FFF7FFFED44F7C
:10333000386800950194C001C20F1A203146234617
:10334000FFF75EFE386800950194C002C20F24208A
:1033500031462346FFF754FECA48006800950194A1
:103360000001C20F2E2031462346FFF749FE386880
:10337000009501940003C20F382031462346FFF721
:103380003FFE3868009501944003C20F4220314649
:103390002346FFF735FE0094BBA2304629462B4654
:1033A000FFF7C4FEBA480268009501942820042360
:1033B00008932946FFF763FE00942027B5A2304604
:1033C00039462B46FFF7B2FEB448026800950194D7
:1033D0004C203946089BFFF752FEF5E00127009785
:1033E00000259AA21024284629462346FFF79EFE70
:1033F00097480068FDF72CFF0246009401971A20B9
:103400000890032306932946FFF739FE00973C20D6
:10341000059090A2294607952346FFF787FE8E4820
:103420000068FDF715FF024600940197502604231B
:10343000049330462946FFF722FE009787A22846CC
:1034400021462346FFF772FE85480068FDF700FF1E
:1034500002460094019708982146069BFFF70FFE4D
:10346000009780A2059821462346FFF75FFE7E481D
:103470000068FDF7EDFE02460094019730462146B4
:10348000049D2B46FFF7FBFD0097202677A20798A7
:1034900031462346FFF74AFE7548026800940197BB
:1034A000089831462B46FFF7EAFD0097302671A2B7
:1034B000079831462346FFF739FE6F4802680094AB
:1034C0000197089831462B46FFF7D9FD7CE001278C
:1034D00000971A20002554A2102429462346FFF7FE
:1034E00025FE009753A2284621462346FFF71EFEDD
:1034F00052480268009401973C20079003230893E8
:103500002146FFF77DFD009720264DA22846314633
:103510002346FFF70BFE4C4802680094019707987A
:103520003146089BFFF76CFD4EE0012600961A20FD
:1035300006900024089434A2102521462B46FFF75C
:10354000F5FD009634A2204629462B46FFF7EEFDF6
:1035500032488069FDF7A2FD02460B460320079022
:10356000009601A961C1282738462946FFF762FC69
:10357000009620242AA2089821462B46FFF7D6FD64
:103580002648C069FDF78AFD02460B46009607985B
:1035900001A961C138462146FFF74CFC0096302452
:1035A00020A2089821462B46FFF7C0FD1B48006A61
:1035B000FDF774FD02460B460096079801A961C10C
:1035C00006982146FFF736FC00F074F809B0F0BD0C
:1035D0004E3A00000C002020737465703A00000021
:1035E00064072020746C3A000D0A202074723A009F
:1035F0000E0A2020416E676C650000005069743A25
:10360000000000009409202076656C5F5049445FFB
:1036100072696768740000004B503A00FC0020207B
:103620004B493A004B643A00726563766461746199
:1036300000000000585F6C6F633A0000180A2020F9
:10364000595F6C6F633A00001C0A20204C453A0019
:10365000C40020204C3A0000C000202052453A000F
:10366000B8002020523A0000B40020204C503A000C
:103670005C09202052503A00040A202068640000AF
:1036800080330A4080130A40655F68643A00000096
:103690001400202068645F7069643A0018002020DC
:1036A00094092020526F6C3A000000005961773A6B
:1036B0000000000080B5FFF789FA80BDF0B585B045
:1036C00000910190BF4F394610390120C4050C60AC
:1036D000050604910D600226304600F0DDFD0294DF
:1036E0003C60304600F0D8FD29463D603D607825BD
:1036F0000024039113E0029838600226304600F05F
:10370000CBFD039F04980760304600F0C5FD3946A5
:10371000AC4F3960601C6D00072C044607D239603D
:1037200068B20028E7D5029804990860E5E7FEF73B
:1037300065FE03993960009800281ED040260024B9
:1037400013E0029838600225284600F0A5FD039F8B
:1037500004980760284600F09FFD3946994F39606C
:10376000601C7600072C04461BD2396070B200281A
:10377000E7D5029804990860E5E7002439600298CB
:1037800038600225284600F087FD049803990160FF
:10379000284600F081FD03993960601C072C04461F
:1037A000ECD3FEF72BFE039E3E600024019A12E04C
:1037B000029838600225284600F06EFD039E0498AA
:1037C0000660284600F068FD3E60601C019A5200C9
:1037D000072C044608D23E6050B200280192E7D57B
:1037E000029804990860E5E7FEF708FE3E60029D36
:1037F0003D600224204600F04FFD049F3E602046BD
:1038000000F04AFD3D60204600F046FD05B0F0BDE9
:1038100010B52A4900202A4A2A4B2B4C8C61CB61D7
:103820000A6248628862C8628860C86027498C6101
:10383000CB610A6248628862C8628860C860244BB3
:1038400024493F2212068124E4059961DC611A6251
:1038500058629862D8629860D86018611E4B012443
:10386000A4079961DC611A6258629862D862986014
:10387000D860186119491A4A1A4B8B61C8610A62EB
:1038800048628862C8628860C8601749174A184B46
:103890008B61C8610A6248628862C8628860C860D9
:1038A00014497F22D205144B8B61C8610A624862B9
:1038B0008862C8628860C86010BDC046BC0620200F
:1038C0006666663F9A99193ECDCC4C3FF0062020A3
:1038D000C800202000002042FC00202028072020D3
:1038E00033132F4400009742B00520203333114496
:1038F0000000BE4360092020CDCCCC3DF0B581B0A6
:1039000005462F4800782F4F2F4EA14C012822D179
:10391000002912D42D48814200DB01462C48814207
:1039200000DC014601222046FEF780FC8020386042
:10393000304610380421016011E049422348814299
:1039400000DB01462248814200DC0146012220467C
:10395000FEF76CFC103F80203860042030600120AE
:1039600087031C480078012813D1002D14D4174870
:10397000854200DB05461648854200DC05460022EC
:1039800020462946FEF752FC3046103808210160D7
:1039900012E0082030600FE069420C48814200DBF1
:1039A00001460B48814200DC014600222046FEF71A
:1039B0003DFC08203060103E376001B0F0BDC046CD
:1039C0008D002020A0120A40A0320A400F270000DC
:1039D000F1D8FFFF8E00202070B5304985220A62A1
:1039E000012463052E4803604A62A20502602D4A45
:1039F00086231360230703608723D360E3070360F4
:103A0000294BDD1C0D604D6064060D6825430D607B
:103A10004D6825434D60822494645C1CD4648125E8
:103A20004D61156155610C460C3C204E26600C46DC
:103A3000083C266096611E4C8C601E4C0C64CC6366
:103A4000166556659665D665D56215635563156727
:103A50008B638B628B65CB618B6101463039802231
:103A60000A6001464039144A0A60803202601348F5
:103A700013490161813C046012490164FF20000385
:103A800011490A6802430A600F2080010F490A6A3F
:103A900002430A620A6802430A6070BD988042408D
:103AA000D0120A400C8042408100040081000600D0
:103AB00081000604810002000C00800190320A405F
:103AC0000C4000000C40020090330A4028300A40AD
:103AD00080B511481149FEF7F5F90320410210485D
:103AE00002680A43026001210A020368134303606B
:103AF0000022426127224262826B07239A4382633B
:103B00001A02836B93438363826A042313438362A1
:103B1000826A0A43826280BD00200F40A8590000DB
:103B200000320F4070B582B0194C1A492046FEF79A
:103B300085FB19492046FEF74FFA00252046294605
:103B40002A46FEF773FB0095204629462A462B4657
:103B5000FEF760FB204629462A46FEF74DFB01266C
:103B6000204629463246FEF761FB0096204629464C
:103B70002A462B46FEF74EFB204629463246FEF7E4
:103B80003BFB064886600321016002B070BDC04661
:103B900000008640AA590000B0590000001186407C
:103BA000F0B581B01B4C1C492046FEF747FB1B4972
:103BB0002046FEF749FA7D20860000252046314642
:103BC0002A46FEF733FB00952027204639462A4631
:103BD0002B46FEF71FFB204629462A46FEF70CFB24
:103BE00001240C4831462246FEF720FB0094094888
:103BF000064639462A462B46FEF70CFB3046294638
:103C00002246FEF7F9FA064884600321016001B0FC
:103C1000F0BDC04600A08640B8590000BC59000065
:103C200000B18640F0B581B01448002404600F2034
:103C30000002134D2968814301277E0288192860FC
:103C40000320C043291F0A6802400A600D48FEF79E
:103C50004DF928681021084320229043286038033A
:103C60002A6802432A60A86B0843A863686BB043C4
:103C700068632046FEF79CF901B0F0BD08030B40D5
:103C800004010B40C459000010B50D4C0D492046ED
:103C9000FEF7D4FA0C492046FEF736FA0B480168C5
:103CA00002220A430260FF20000609490A68824393
:103CB00001208307D2180A600649086010BDC0467B
:103CC00000208640EC590000F05900002830864062
:103CD00010E400E00831864010B5184C1849204621
:103CE000FEF7DEFA17492046FEF7B6FA0320C103B5
:103CF000154802688A4302600169144A0A40153275
:103D0000026141692D220A4312218A4342614268BD
:103D100001210A4043688B439A1842608A020C4B87
:103D20001C6814431C60FF2212060A4B1C68944353
:103D30001C6002680A43026010BDC046008010404B
:103D4000045A0000065A0000009110400000FFFFD6
:103D5000289010400CE400E080B500F01FF8FFF759
:103D60003BFEFFF75FFFFFF7DDFEFFF719FFFFF7F1
:103D70008BFFFFF7ADFEFFF7AFFF74200449002271
:103D80000A54B82003490A5403490A5480BDC04666
:103D900024082020680720209C082020F0B581B04E
:103DA0000D480E4941600E4A51600E4B59600E4C51
:103DB00061600E4D69600E4E71600E4F79600E4964
:103DC0000160116019602160296031603960102044
:103DD000FEF748F801B0F0BD00080A40030000B14A
:103DE00000280A400008864000A886400028864037
:103DF00000280F40008810400100002610B516482A
:103E00000068C0B2022825D100F036F9134C208892
:103E1000401C208080B20A2805D3FDF70DFFFEF775
:103E200099FB002020800E480188491C018089B23E
:103E3000642903D30021018000F082FA0948018837
:103E4000491C018089B2C9087D2903D30021018062
:103E500000F07AFA10BDC04620308640E6052020EA
:103E6000E4052020E8052020B0B52A490868020DA5
:103E700010201040284A10700A68530C08221A407B
:103E8000264B1A70264B1B685C0E04232340254CDE
:103E900023700C68A40C02252540234C257009686A
:103EA0004903C90F214C21701018C018401940183F
:103EB000401E00241B2822D8784400794000874403
:103EC00013150D1E1E170D191E1E1E1B1E1E1E1D58
:103ED0001E1E1E1E1E1E1E0F1E1E1E0FEC4800E084
:103EE000EA48012101700AE0164C08E0124C06E095
:103EF000124C04E00F4C02E0114C00E00C4C00218D
:103F0000204600F0DBFD411E88410F490870204625
:103F1000B0BDC04680330A40EA052020EB052020D2
:103F200080130A40EC052020ED052020EE0520201E
:103F30000000A0410000E0400000E0C0333313C0A7
:103F4000333313400000A0C15C072020F0B51448B3
:103F50000168490522D50125A902F84A148823B22F
:103F6000104E3668002B18D4F6B20F4F7A1C14424C
:103F700004D00A2E0ED10D4A13430CE00D2E02D1AF
:103F8000AA03134307E03C40EB4A16555B1C9AB268
:103F9000C72A00D90023E94A13800161F0BDC04659
:103FA0003890104024911040FF3F00000080FFFF38
:103FB000F0B581B0164F3960786001F0E9F8044639
:103FC000B860FD68F860F96A00F0C6FFF862F96948
:103FD00001F086F80646B869214601F081F83146BD
:103FE00000F0BAFF06462046294601F0D1F8014606
:103FF000386A01F075F8314600F0AEFF0146786A84
:1040000000F0AAFFB862FDF723F901B0F0BDC04689
:10401000BC062020F0B581B0164F3960786001F001
:10402000B7F80446B860FD68F860F96A00F094FFDC
:10403000F862F96901F054F80646B869214601F0C2
:104040004FF8314600F088FF06462046294601F029
:104050009FF80146386A01F043F8314600F07CFFD2
:104060000146786A00F078FFB862FDF7F1F801B018
:10407000F0BDC046F0062020B0B5AE48007800285C
:1040800000D1A0E0A6480078401E042800D99AE09C
:1040900078440079400087440502022F520000F066
:1040A000E1FAB0BDA24D287803287BD0012800D1C9
:1040B0008AE0002800D086E0FFF7D6FE6C49086051
:1040C0000024214600F072FA6A4908606A490968CA
:1040D0000A1A6A4B1A600918694801601046FFF70E
:1040E0000DFCFF215A318F4800784843FDF712F943
:1040F00001466448006844E000F0B4FA8C4D28782A
:1041000003284FD001285FD000285CD1FFF7ACFE18
:10411000574908600024214600F048FA55490860D4
:10412000554909680A1A554B1A6009185448016024
:104130001046FFF7E3FB53480068564921E000F0C2
:1041400091FA7B4D2878032859D0012867D00028A0
:1041500039D1FFF789FE464908600024214600F066
:1041600025FA44490860444909680A1A434B1A6011
:104170000918434801601046FFF7C0FB414800683A
:10418000414900F0BEFC002832D0404801780029A7
:1041900058D0047034488068314908602878401C41
:1041A0002870B0BD7D214801C900FFF7A7FB2C484E
:1041B00000682C4900F0D0FE01462B48806800F0D2
:1041C00088FC002811D0B0BD7D21C8004901FFF74F
:1041D00095FB23480068254900F0BEFE01462248B1
:1041E000806800F08EFC0028EDD100202870B0BD62
:1041F00000200146FFF782FB02202870B0BD17485F
:1042000000242146FFF77AFB15480068154900F0A5
:10421000A3FE01461448806800F05BFC0EE0002419
:104220000E492046FFF76AFB0D4800680F4900F071
:1042300093FE01460C48806800F063FC0028C2D160
:104240002C70B0BD124801780029BCD00321297020
:1042500004700548806802490860B0BD701700000E
:10426000200A202000008CC29409202000008C42EB
:1042700060072020580920201C0020205C092020F5
:10428000040A2020AC002020008031440D0A2020A8
:104290000E0A20200080B14380B550214843FDF72D
:1042A000E1FD80BD10B5FEF7DBF8401E03282ED8D7
:1042B0007844007940008744011E030B1B481BE033
:1042C00017480078012820D116480178491C1BE0C6
:1042D0001648007801281BD11548002404701548A1
:1042E000017801224A4002701348C821FCF74FF8B8
:1042F0001248048009E00A480178491C0A4A4A43E6
:10430000120C06235343C91A0170FEF7ADFB10BD12
:10431000034800780128F8D102480178491EF3E7E4
:10432000650720200C002020AB2A0000EF0520208C
:10433000640720200C0A2020F0052020B806202049
:10434000034804210160704701480821016070475B
:10435000B0120A40FFF700FDFEF798FB00F038F8B6
:10436000FFF756FA0120C103114A1160114B196081
:10437000C1041160196010490A6802430A600221F1
:1043800019600E4908700E49087040040D49086014
:104390000D4801880D48008800F03AF900200146D8
:1043A000FFF7ACFAFFF77EFFFEF7E8FEFAE7C0463C
:1043B00080E200E000E100E0043886408E0020202A
:1043C0008D00202090320A40180020201400202068
:1043D000F0B585B00026029602A96B2008800396EE
:1043E00068480222FDF743FD674D28688006FCD52A
:1043F0002F46083F386865490840D03038602C1F88
:1044000020686349084063494018206028684006D6
:10441000FCD428688006FCD55A48FDF73FFD02967B
:1044200002A95D480880039602225648FDF71FFD49
:1044300028688006FCD5386854490840D02101918D
:1044400008433860206852490840524908432060B8
:1044500028684006FCD428688006FCD54948FDF74A
:104460001DFD029602A94D48088003960222454888
:10447000FDF7FDFC28688006FCD5386843490840F4
:104480000199084338602068414908404149084380
:10449000206028684006FCD428688006FCD539488E
:1044A000FDF7FCFC029602A93D4808800396022213
:1044B0003448FDF7DCFC28688006FCD538683349B1
:1044C0000840019908433860206831490840314963
:1044D0000843206028684006FCD428688006FCD584
:1044E0002848FDF7DBFC029602A92E4808800396B7
:1044F00002222448FDF7BBFC28688006FCD53868FA
:104500002249084001990843386020682049084042
:1045100020490843206028684006FCD428688006AB
:10452000FCD51848FDF7BAFC68246B2102AA0125C6
:1045300020462B46FDF716FF1B4E029830701921BE
:1045400002AA20462B46FDF70DFF029870701A2133
:1045500002AA20462B46FDF705FF0298B0701B21EA
:1045600002AA20462B46FDF7FDFE0298F0701C21A2
:1045700002AA20462B46FDF7F5FE0298307105B0E1
:10458000F0BDC04600200F4018320F4000F8FFFF7A
:10459000F8FF00F007000200190900001A060000E9
:1045A0001B1800001C180000FC092020F0B581B089
:1045B000164F3960786000F0EBFD0446B860FD6886
:1045C000F860F96A00F0C8FCF862F96900F088FD4B
:1045D0000646B869214600F083FD314600F0BCFC78
:1045E00006462046294600F0D3FD0146386A00F011
:1045F00077FD314600F0B0FC0146786A00F0ACFC73
:10460000B862FCF725FE01B0F0BDC046B005202021
:10461000F0B581B00D4619214C0141214F013946B9
:10462000DC318842224600D802460F204001DC30AF
:104630008242214600D31146094E01223046FDF741
:10464000F5FDBD42204600D8284641090F2900D378
:104650000446002230462146FDF7E8FD01B0F0BDDA
:1046600000A08640F0B581B000253F48405F00289B
:1046700001D401B0F0BD3D483DA13F4C3F4E224624
:104680003346FBF7A3FD3E480088FCF74BFE074688
:104690002068FCF747FE01463A4A3846FDF740FFDE
:1046A000FCF7FCFD206038480088FCF73BFE07461D
:1046B0003068FCF737FE014638463746314A304EFF
:1046C000FDF72EFFFCF7EAFD0146386032882068CE
:1046D000831A06D3032B04D82B4B1B88CB1A042B2D
:1046E00034D3121A06D9032A04D8274A1288521A38
:1046F000042A2BD301431BD0FCF714FE06462348A3
:104700000068FCF70FFE01463046FFF751FC2049D8
:1047100008803868FCF706FE06461E480068FCF76D
:1047200001FE01463046164EFFF774FC1A49088018
:10473000174800884B210901081A80B21921890104
:10474000154A1288511889B2FFF762FF0748C8213D
:10475000FBF71DFE0448058038680B490880206877
:10476000308001B0F0BDC046B8062020F005202002
:104770002825642C25642900180A20201C0A2020E2
:10478000140A2020CBA1C53E160A2020200020209C
:10479000100A202024002020120A202043088B42E7
:1047A0001AD3002203098B4279D3030A8B425ED3CA
:1047B000030B8B4242D3030C8B4227D30902FF2207
:1047C00012BA030C8B4202D31212090203D0030B5C
:1047D0008B4233D31AE0D3E0411A8041401C70472A
:1047E00003460B4371D443088B42F5D300220309DF
:1047F0008B4254D3030A8B4239D3030B8B421DD314
:10480000030C8B4202D394466EE0090AC30B8B4221
:1048100001D3CB03C01A5241830B8B4201D38B03CC
:10482000C01A5241430B8B4201D34B03C01A524171
:10483000030B8B4201D30B03C01A5241C30A8B42B4
:1048400001D3CB02C01A5241830A8B4201D38B029F
:10485000C01A5241430A8B4201D34B02C01A524143
:10486000030A8B4201D30B02C01A5241CDD2C309B5
:104870008B4201D3CB01C01A524183098B4201D331
:104880008B01C01A524143098B4201D34B01C01A1C
:10489000524103098B4201D30B01C01A5241C30894
:1048A0008B4201D3CB00C01A524183088B4201D303
:1048B0008B00C01A524143088B4201D34B00C01AEF
:1048C0005241411A524110007047CA0F00D049426C
:1048D000031000D34042534000229C4603098B4200
:1048E0002DD3030A8B4212D38901FC2212BA030A88
:1048F0008B420CD3890192118B4208D3890192110A
:104900008B4204D3890137D0921100E08909C30991
:104910008B4201D3CB01C01A524183098B4201D390
:104920008B01C01A524143098B4201D34B01C01A7B
:10493000524103098B4201D30B01C01A5241C308F3
:104940008B4201D3CB00C01A524183088B4201D362
:104950008B00C01A5241D9D243088B4201D34B007D
:10496000C01A5241411A00D20146524110466346D4
:104970005B1000D34042704763465B1000D3404257
:1049800001B50021004201D0C9430846C046C046D7
:1049900002BD00004900CA020243100000D00420FA
:1049A0004A0D01D001221043044A490D914201D120
:1049B00002210843012800D105207047FF070000AD
:1049C000F8B504464F1EC8000838211815461E4683
:1049D000086849683A4606239A4310D02A46334667
:1049E000FCF738FA3A46D200083AA3181A687F1E34
:1049F0005B68FBF78BFF06223B469343EED1022F09
:104A000023D0042F11D0062F2FD12A463346FCF78E
:104A100021FAE36AA26AFBF779FF2A463346FCF7DC
:104A200019FA636A226AFBF771FF2A463346FCF7DC
:104A300011FAE369A269FBF769FF2A463346FCF7DE
:104A400009FA63692269FBF761FF2A463346FCF7DE
:104A500001FAE368A268FBF759FF2A463346FCF7E0
:104A6000F9F963682268FBF751FFF8BD10B5012220
:104A7000FCF728FD10BD0000034A10B50020110707
:104A8000FCF720FD10BD000001FDFFFF10B500F098
:104A9000CBF9EFF30080400001D5012010BD0020CC
:104AA00010BD10B500F0F2F9EFF300804000800F68
:104AB000012801D0012010BD002010BD10B500F06C
:104AC00091FAEFF30080400001D5012010BD0020D5
:104AD00010BD10B500F0B0FAEFF300804000800F79
:104AE000012800D0002010BD10B500F0CFFAEFF380
:104AF00000804000800F012801D0012010BD00205F
:104B000010BD10B500F0C2FAEFF30080800001D4B0
:104B1000012010BD002010BDF0B589B004460D463F
:104B20004800069172494008884215DB7149884265
:104B300003DC884207D1002C05D020462946FFF728
:104B400095FF09B0F0BD6C48002D02DD6B4909B03E
:104B5000F0BD6B4909B0F0BD6A49884211DA6A4973
:104B600088420BDA20462946FFF714FF042801D1BA
:104B7000FFF782FF2046294609B0F0BD0026F64324
:104B80005DE06D0061496D08884232DA6049884213
:104B900019DA0026012332469B0720462946FBF7F7
:104BA000B5FE07460191012220462946FCF78AFC02
:104BB0000022584BFBF7B7FE3A46019BFBF7D6FEA7
:104BC00004460D463BE001260022524B2046294672
:104BD000FBF79CFE0746009100224E4B20462946DB
:104BE000FBF7A1FE3A46009BFBF7C0FE04460D46CC
:104BF00025E04949884219DA02260022474B20461F
:104C00002946FCF727F90022424BFBF77FFE0746B7
:104C100002910022414B20462946FBF784FE3A468A
:104C2000029BFBF7A3FE04460D4608E0032622463E
:104C30002B4600203A49FBF799FE04460D462246D2
:104C40002B4610461946FCF705F907460B46024667
:104C50000191FCF7FFF80246029032480B4603919F
:104C600006217844FFF7ACFE3A46019BFCF7F2F8C8
:104C700000902D48019105217844039B029AFFF78B
:104C80009FFE039B029AFCF7E5F802460B4601994A
:104C90000098002E0BDAFBF739FE22462B46FCF774
:104CA000D9F822462B46FBF749FE09B0F0BDFBF7C9
:104CB0002DFE22462B46FCF7CDF81C4AF6007A441E
:104CC00093191A685B68FBF72EFE22462B46FBF70A
:104CD0002AFE174A7A4493191A685B68FBF72EFE7E
:104CE000069A002AE1DA0122D207514009B0F0BD4C
:104CF000000010440000F07F182D4454FB21F93FC0
:104D0000FB21F9BF0000DC3F0000203E0000F33F24
:104D10000000E63F0000F03F008003400000F83F45
:104D20000000F0BF22070000E40600007E0600003D
:104D300048060000F0B513B406460199FCF74AFB9B
:104D400004460D4602460B4630460199FBF7EBFD43
:104D5000064601981B4B0F4600280CDA002230460D
:104D600000F094F80CD90022174B3046394600F079
:104D7000BFF81DD214E00022304600F087F808D2B8
:104D80000022124B20462946FBF7CDFD04460D4676
:104D90000EE000220C4B3046394600F0A9F807D847
:104DA00000220A4B20462946FBF7B0FD04460D467B
:104DB000019A69004908D20FD2072046114303B077
:104DC000F0BD00000000E0BF0000E03F0000F03F49
:104DD00070B50546FCF7A6FB41000446FF204908D4
:104DE000C005411AC90F07D069004908401AC00F11
:104DF00002D10120FCF79EFA204670BD10B50029B3
:104E00000AD00878002807D005487844FCF784FECB
:104E1000002801D0002010BD0248784410BD0000D9
:104E2000260C00001E0C000070B501252D050C009D
:104E30001C4310D4EC4206D4AC420AD4994200D0B0
:104E400070BD904270BDE94217D4EB4215D499422F
:104E500070BD894270BDEC4206D5AC42F9D58B429B
:104E600000D070BD824270BD6D004C00EC4204D297
:104E70005C00EC4201D28B4270BD034C30B4FCF7B5
:104E800067FD30BC70BD00BF1900120470B501256C
:104E90002D050C001C4310D4EC4206D4AC420AD4BD
:104EA000994200D070BD904270BDE94217D4EB42E8
:104EB00015D4994270BD894270BDEC4206D5AC4212
:104EC000F9D58B4200D070BD824270BD6D004C00A0
:104ED000EC4204D25C00EC4201D28B4270BD034C28
:104EE00030B4FCF735FD30BC70BD00BF19001604AE
:104EF00070B501252D051C000C4310D4EC4206D4DE
:104F0000AC420AD48B4200D070BD824270BDEB42ED
:104F100017D4E94215D48B4270BD9B4270BDEC4260
:104F200006D5AC42F9D5994200D070BD904270BD13
:104F30006D005C00EC4204D24C00EC4201D299427C
:104F400070BD0FB40CBC03BC024C30B4FCF700FDC8
:104F500030BC70BD1900160470B50125ED070400C2
:104F60004C4020D4441A01D2001B0919C60D4B0035
:104F7000F2B2FF2A29D01B0E2CD000020C022843CB
:104F80002C43D31ADC40051910D2280A02D3401C46
:104F90006D0611D0761EF6058019FF2A00DA70BD65
:104FA000C00DC00570BD694000F0F8F80120054350
:104FB000C541521C761CE8E764089C40C901614069
:104FC0008900E7D10124A043E4E71B0E440200D08E
:104FD000034870BD002AFCD1C00FC00770BD00BFE0
:104FE0000000C07F0123DB0502000A430DD4DA4232
:104FF00003D49A4207D488427047D84214D4D94285
:1050000012D48842704780427047DA4203D59A42F0
:10501000F9D5814270475B004200DA4204D24A006F
:10502000DA4201D28142704710B5024AFCF7E0FC37
:1050300010BD00BF090012040123DB0502000A4372
:105040000DD4DA4203D49A4207D488427047D8423A
:1050500014D4D94212D48842704780427047DA4251
:1050600003D59A42F9D5814270475B004200DA428B
:1050700004D24A00DA4201D28142704710B5024A96
:10508000FCF7B6FC10BD00BF090013040123DB05CB
:1050900002000A430DD4DA4203D49A4207D488426C
:1050A0007047D84214D4D94212D488427047804203
:1050B0007047DA4203D59A42F9D5814270475B00C6
:1050C0004200DA4204D24A00DA4201D281427047F9
:1050D00010B5024AFCF78CFC10BD00BF0900160495
:1050E00070B5420064414B005C41120E39D01B0E7A
:1050F00038D0FF2A3CD0FF2B3AD0D2187F3A40025A
:105100004902400A490A4518ED0106004E43000ACB
:10511000090A48430104731A4019190C4318990FDE
:1051200004D05B08012149075B1A521CD80904D33B
:10513000401CF50301D19D0607D0FF2A08D2D505F2
:1051400006D0E4072043401970BD0125A843F4E7C9
:10515000002A01DCE00770BD2402FF202043C005C7
:1051600070BD1B0EFF2A03D0FF2B01D0E00770BDDE
:10517000FF2636064500B54206D84D00B54203D895
:10518000D218FF2A00D0E7E7004870BD0000C07FBA
:1051900070B50125ED0704004C4022D4441A02D218
:1051A0006C40001B0919C60D4B00F2B2FF2A4BD010
:1051B0001B0E50D000020C02A8432C43D31ADC4033
:1051C000051B05D5AD0019D36D08761E521E37D0CC
:1051D000F605280A01D2801970BD70416D0603D012
:1051E00070BD6940FFF7BEFE9C4009026140490066
:1051F00001D0401E70BD0124A04370BD6D081DD0BC
:1052000001202B0C01D12D0410302B0E01D12D02C9
:1052100008302B0F01D12D01001DAB0F01D1AD00C6
:10522000801CEB0F01D16D00401C361A121A6D0064
:10523000680AF5054019012A02DB70BD002070BD27
:10524000C036300AC00770BD1B0E440201D1FF2BCF
:1052500000D1024870BD002AF0D070BD0000C07FB0
:1052600080807F7E7D7C7B7A7978777676757473A3
:10527000727171706F6E6E6D6C6C6B6A6A69686862
:10528000676666656464636362616160605F5F5EF8
:105290005E5D5D5C5C5B5B5A5A595958585757566E
:1052A00056555555545453535252525151505050D3
:1052B0004F4F4F4E4E4D4D4D4C4C4C4B4B4B4A4A25
:1052C0004A49494948484847474747464646454569
:1052D00045444444444343434342424242414141A2
:1052E0008182838485868788898B8C8D8E8F91922D
:1052F00093959697999A9C9D9FA0A2A3A5A7A8AACB
:10530000ACAEB0B2B3B5B7B9BCBEC0C2C5C7C9CCEC
:10531000CED1D4D7D9DCDFE2E6E9ECF0F3F7FAFE40
:105320004FBB610567ACDD3F182D4454FB21E93FBD
:105330009BF681D20B73EF3F182D4454FB21F93FAC
:10534000E2652F227F2B7A3C075C143326A6813C32
:10535000BDCBF07A8807703C075C143326A6913CDD
:10536000C4EB98999999C9BF711623FEC671BCBF49
:105370006D9A74AFF2B0B3BF9AFDDE522DDEADBFB1
:105380002F6C6A2C44B4A2BF0D5555555555D53FC9
:10539000FF8300922449C23F6E204CC5CD45B73FE4
:1053A000513DD0A0660DB13FEB0D76244B7BA93F5C
:1053B00011DA22E33AAD903F000000000000000047
:1053C0000000000000000000000000F800000000E5
:1053D000000000333000000000100C06100C060026
:1053E000000000000000000040C07840C07840008D
:1053F000043F04043F040400007088FC08300000EF
:10540000001820FF211E0000F008F000E018000046
:1054100000211C031E211E0000F0088870000000FF
:105420001E2123241927211010160E000000000051
:105430000000000000000000000000E0180402006E
:10544000000000071820400000020418E0000000DF
:105450000040201807000000404080F080404000DD
:105460000202010F01020200000000F00000000033
:105470000101011F01010100000000000000000007
:1054800080B070000000000000000000000000007C
:105490000001010101010101000000000000000005
:1054A00000303000000000000000000080601804A0
:1054B000006018060100000000E010080810E0007D
:1054C000000F102020100F00001010F80000000046
:1054D0000020203F2020000000700808088870008D
:1054E000003028242221300000300888884830000D
:1054F0000018202020110E000000C02010F800002D
:1055000000070424243F240000F8088888080800C5
:105510000019212020110E0000E0108888180000DA
:10552000000F112020110E0000380808C8380800AC
:105530000000003F0000000000708808088870002C
:10554000001C222121221C0000E010080810E000AD
:105550000000312222110F00000000C0C000000036
:10556000000000303000000000000080000000005B
:105570000000806000000000000080402010080053
:10558000000102040810200040404040404040001C
:1055900004040404040404000008102040800000F7
:1055A0000020100804020100007048080808F000FC
:1055B0000000003036010000C030C828E810E000CC
:1055C0000718272423140B000000C038E000000057
:1055D000203C23020227382008F8888888700000C1
:1055E000203F202020110E00C03008080808380095
:1055F000071820202010080008F808080810E0000C
:10560000203F202020100F0008F88888E8081000AC
:10561000203F20202320180008F88888E808100080
:10562000203F200003000000C030080808380000B8
:1056300007182020221E020008F808000008F808B9
:10564000203F210101213F20000808F80808000040
:105650000020203F2020000000000808F808080073
:10566000C08080807F00000008F888C028180800EB
:10567000203F20012638200008F808000000000024
:10568000203F20202020300008F8F800F8F808001B
:10569000203F003F003F200008F830C00008F80815
:1056A000203F200007183F00E01008080810E00025
:1056B0000F10202020100F0008F808080808F0003C
:1056C000203F210101010000E01008080810E0005F
:1056D0000F18242438504F0008F8888888887000F4
:1056E000203F2000030C3020007088080808380094
:1056F0000038202121221C00180808F8080818008A
:105700000000203F2000000008F808000008F8080A
:10571000001F202020201F000878880000C83808BB
:10572000000007380E010000F80800F80008F80033
:10573000033C0700073C03000818688080681808CD
:1057400020302C03032C30200838C800C83808004B
:105750000000203F2000000010080808C83808009A
:105760002038262120201800000000FE020202003E
:105770000000007F40404000000C30C000000000EE
:10578000000000010638C00000020202FE00000016
:10579000004040407F0000000000040202020400BC
:1057A00000000000000000000000000000000000F9
:1057B00080808080808080800002020400000000E1
:1057C00000000000000000000000808080800000D9
:1057D0000019242222223F2008F8008080000000C7
:1057E000003F112020110E0000000080808000008A
:1057F000000E112020201100000000808088F80099
:10580000000E112020103F200000808080800000CA
:10581000001F222222221300008080F0888888182E
:105820000020203F20200000000080808080800039
:10583000006B94949493600008F8008080800000CE
:10584000203F210000203F200080989800000000A9
:105850000020203F202000000000008098980000D9
:1058600000C08080807F000008F8000080808000F9
:10587000203F24022D302000000808F8000000001E
:105880000020203F202000008080808080808000D9
:10589000203F20003F20003F80800080808000006B
:1058A000203F210000203F200000808080800000F9
:1058B000001F202020201F0080800080800000002A
:1058C00080FFA12020110E00000000808080800059
:1058D000000E112020A0FF8080808000808080004A
:1058E00020203F2120000100000080808080800077
:1058F0000033242424241900008080E080800000EC
:105900000000001F20200000808000000080800038
:10591000001F202020103F20808080000080808099
:1059200000010E3008060100808000800080808029
:105930000F300C030C300F0000808000808080004E
:105940000020312E0E312000808080000080808079
:1059500080818E7018060100008080808080800029
:105960000021302C2221300000000000807C020247
:1059700000000000003F404000000000FF00000069
:1059800000000000FF0000000002027C8000000018
:105990000040403F00000000000601010202040434
:1059A00000000000000000000800080001000000E6
:1059B000204E00002001010008070900204E0000D1
:1059C00020010000030000000000000000000000B3
:1059D0004000000000000000000000000200000085
:1059E00004000000000000003400C4410807FF006C
:1059F000220000002600000001000000000000005E
:105A00000000000008000000180000000030000046
:105A1000405B000000002020280000002001000062
:105A2000685B0000280020200010000048010000F2
:105A30001001000043000000F8FFFFFF004040405D
:105A40004040404040404141414141404040404051
:105A500040404040404040404040404040050202FD
:105A600002020202020202020202020202202020BC
:105A70002020202020202002020202020202909018
:105A80009090909010101010101010101010101016
:105A9000101010101010101002020202020288886A
:105AA0008888888808080808080808080808080876
:105AB000080808080808080802020202400000005E
:105AC00000000000000000000000000000000000D6
:105AD00000000000000000000000000000000000C6
